{
  "_format": "hh-sol-artifact-1",
  "contractName": "BlackJack",
  "sourceName": "contracts/BlackJack.sol",
  "abi": [
    {
      "inputs": [
        {
          "internalType": "address",
          "name": "_shuffle",
          "type": "address"
        },
        {
          "internalType": "address",
          "name": "_decrypt1",
          "type": "address"
        },
        {
          "internalType": "address",
          "name": "_decrypt3",
          "type": "address"
        },
        {
          "internalType": "address",
          "name": "_decrypt4",
          "type": "address"
        }
      ],
      "stateMutability": "nonpayable",
      "type": "constructor"
    },
    {
      "anonymous": false,
      "inputs": [
        {
          "indexed": true,
          "internalType": "address",
          "name": "player",
          "type": "address"
        },
        {
          "indexed": true,
          "internalType": "address",
          "name": "dealer",
          "type": "address"
        },
        {
          "indexed": false,
          "internalType": "uint256",
          "name": "id",
          "type": "uint256"
        }
      ],
      "name": "Double",
      "type": "event"
    },
    {
      "anonymous": false,
      "inputs": [
        {
          "indexed": false,
          "internalType": "uint256",
          "name": "id",
          "type": "uint256"
        }
      ],
      "name": "Draw",
      "type": "event"
    },
    {
      "anonymous": false,
      "inputs": [
        {
          "indexed": false,
          "internalType": "uint256",
          "name": "id",
          "type": "uint256"
        },
        {
          "indexed": true,
          "internalType": "address",
          "name": "winner",
          "type": "address"
        },
        {
          "indexed": false,
          "internalType": "uint256",
          "name": "playerReceive",
          "type": "uint256"
        },
        {
          "indexed": false,
          "internalType": "uint256",
          "name": "dealerReceive",
          "type": "uint256"
        }
      ],
      "name": "EndGame",
      "type": "event"
    },
    {
      "anonymous": false,
      "inputs": [
        {
          "indexed": true,
          "internalType": "address",
          "name": "winner",
          "type": "address"
        },
        {
          "indexed": false,
          "internalType": "uint256",
          "name": "reward",
          "type": "uint256"
        },
        {
          "indexed": false,
          "internalType": "uint256",
          "name": "id",
          "type": "uint256"
        }
      ],
      "name": "EndInsurance",
      "type": "event"
    },
    {
      "anonymous": false,
      "inputs": [
        {
          "indexed": true,
          "internalType": "address",
          "name": "player",
          "type": "address"
        },
        {
          "indexed": true,
          "internalType": "address",
          "name": "dealer",
          "type": "address"
        },
        {
          "indexed": false,
          "internalType": "uint256",
          "name": "id",
          "type": "uint256"
        }
      ],
      "name": "Hit",
      "type": "event"
    },
    {
      "anonymous": false,
      "inputs": [
        {
          "indexed": true,
          "internalType": "address",
          "name": "player",
          "type": "address"
        },
        {
          "indexed": true,
          "internalType": "address",
          "name": "dealer",
          "type": "address"
        },
        {
          "indexed": false,
          "internalType": "uint256",
          "name": "id",
          "type": "uint256"
        }
      ],
      "name": "JoinGame",
      "type": "event"
    },
    {
      "anonymous": false,
      "inputs": [
        {
          "indexed": true,
          "internalType": "address",
          "name": "dealer",
          "type": "address"
        },
        {
          "indexed": false,
          "internalType": "uint256",
          "name": "id",
          "type": "uint256"
        }
      ],
      "name": "NewGame",
      "type": "event"
    },
    {
      "anonymous": false,
      "inputs": [
        {
          "indexed": true,
          "internalType": "address",
          "name": "player",
          "type": "address"
        },
        {
          "indexed": true,
          "internalType": "address",
          "name": "dealer",
          "type": "address"
        },
        {
          "indexed": false,
          "internalType": "uint256",
          "name": "id",
          "type": "uint256"
        }
      ],
      "name": "OpenInsurance",
      "type": "event"
    },
    {
      "anonymous": false,
      "inputs": [
        {
          "indexed": false,
          "internalType": "uint256",
          "name": "id",
          "type": "uint256"
        }
      ],
      "name": "Shuffle",
      "type": "event"
    },
    {
      "anonymous": false,
      "inputs": [
        {
          "indexed": true,
          "internalType": "address",
          "name": "player",
          "type": "address"
        },
        {
          "indexed": true,
          "internalType": "address",
          "name": "dealer",
          "type": "address"
        },
        {
          "indexed": false,
          "internalType": "uint256",
          "name": "id",
          "type": "uint256"
        }
      ],
      "name": "Stand",
      "type": "event"
    },
    {
      "anonymous": false,
      "inputs": [
        {
          "indexed": true,
          "internalType": "address",
          "name": "winner",
          "type": "address"
        },
        {
          "indexed": false,
          "internalType": "uint256",
          "name": "reward",
          "type": "uint256"
        },
        {
          "indexed": false,
          "internalType": "uint256",
          "name": "id",
          "type": "uint256"
        }
      ],
      "name": "Win",
      "type": "event"
    },
    {
      "inputs": [],
      "name": "CARD_NUM",
      "outputs": [
        {
          "internalType": "uint256",
          "name": "",
          "type": "uint256"
        }
      ],
      "stateMutability": "view",
      "type": "function"
    },
    {
      "inputs": [],
      "name": "betPrice",
      "outputs": [
        {
          "internalType": "uint256",
          "name": "",
          "type": "uint256"
        }
      ],
      "stateMutability": "view",
      "type": "function"
    },
    {
      "inputs": [],
      "name": "boardCounter",
      "outputs": [
        {
          "internalType": "uint256",
          "name": "",
          "type": "uint256"
        }
      ],
      "stateMutability": "view",
      "type": "function"
    },
    {
      "inputs": [
        {
          "internalType": "uint256",
          "name": "min",
          "type": "uint256"
        },
        {
          "internalType": "uint256",
          "name": "max",
          "type": "uint256"
        }
      ],
      "name": "calculatePoint",
      "outputs": [
        {
          "internalType": "uint256",
          "name": "",
          "type": "uint256"
        }
      ],
      "stateMutability": "pure",
      "type": "function"
    },
    {
      "inputs": [
        {
          "internalType": "uint256",
          "name": "gameId",
          "type": "uint256"
        },
        {
          "internalType": "uint256[2]",
          "name": "a",
          "type": "uint256[2]"
        },
        {
          "internalType": "uint256[2][2]",
          "name": "b",
          "type": "uint256[2][2]"
        },
        {
          "internalType": "uint256[2]",
          "name": "c",
          "type": "uint256[2]"
        },
        {
          "internalType": "uint256[10]",
          "name": "input",
          "type": "uint256[10]"
        }
      ],
      "name": "deal3",
      "outputs": [],
      "stateMutability": "nonpayable",
      "type": "function"
    },
    {
      "inputs": [
        {
          "internalType": "uint256",
          "name": "gameId",
          "type": "uint256"
        },
        {
          "internalType": "uint256[2]",
          "name": "a",
          "type": "uint256[2]"
        },
        {
          "internalType": "uint256[2][2]",
          "name": "b",
          "type": "uint256[2][2]"
        },
        {
          "internalType": "uint256[2]",
          "name": "c",
          "type": "uint256[2]"
        },
        {
          "internalType": "uint256[13]",
          "name": "input",
          "type": "uint256[13]"
        }
      ],
      "name": "deal4",
      "outputs": [],
      "stateMutability": "nonpayable",
      "type": "function"
    },
    {
      "inputs": [
        {
          "internalType": "uint256",
          "name": "gameId",
          "type": "uint256"
        },
        {
          "internalType": "uint8",
          "name": "id",
          "type": "uint8"
        },
        {
          "internalType": "uint256[2]",
          "name": "a",
          "type": "uint256[2]"
        },
        {
          "internalType": "uint256[2][2]",
          "name": "b",
          "type": "uint256[2][2]"
        },
        {
          "internalType": "uint256[2]",
          "name": "c",
          "type": "uint256[2]"
        },
        {
          "internalType": "uint256[4]",
          "name": "input",
          "type": "uint256[4]"
        }
      ],
      "name": "dealDouble",
      "outputs": [],
      "stateMutability": "nonpayable",
      "type": "function"
    },
    {
      "inputs": [
        {
          "internalType": "uint256",
          "name": "gameId",
          "type": "uint256"
        },
        {
          "internalType": "uint256[2]",
          "name": "a",
          "type": "uint256[2]"
        },
        {
          "internalType": "uint256[2][2]",
          "name": "b",
          "type": "uint256[2][2]"
        },
        {
          "internalType": "uint256[2]",
          "name": "c",
          "type": "uint256[2]"
        },
        {
          "internalType": "uint256[4]",
          "name": "input",
          "type": "uint256[4]"
        }
      ],
      "name": "dealHiddenCard",
      "outputs": [],
      "stateMutability": "nonpayable",
      "type": "function"
    },
    {
      "inputs": [
        {
          "internalType": "uint256",
          "name": "gameId",
          "type": "uint256"
        },
        {
          "internalType": "uint8",
          "name": "id",
          "type": "uint8"
        },
        {
          "internalType": "uint256[2]",
          "name": "a",
          "type": "uint256[2]"
        },
        {
          "internalType": "uint256[2][2]",
          "name": "b",
          "type": "uint256[2][2]"
        },
        {
          "internalType": "uint256[2]",
          "name": "c",
          "type": "uint256[2]"
        },
        {
          "internalType": "uint256[4]",
          "name": "input",
          "type": "uint256[4]"
        }
      ],
      "name": "dealHit",
      "outputs": [],
      "stateMutability": "nonpayable",
      "type": "function"
    },
    {
      "inputs": [
        {
          "internalType": "uint256",
          "name": "gameId",
          "type": "uint256"
        },
        {
          "internalType": "uint8",
          "name": "id",
          "type": "uint8"
        },
        {
          "internalType": "uint256[2]",
          "name": "a",
          "type": "uint256[2]"
        },
        {
          "internalType": "uint256[2][2]",
          "name": "b",
          "type": "uint256[2][2]"
        },
        {
          "internalType": "uint256[2]",
          "name": "c",
          "type": "uint256[2]"
        },
        {
          "internalType": "uint256[4]",
          "name": "input",
          "type": "uint256[4]"
        }
      ],
      "name": "dealerDecrypt1Card",
      "outputs": [],
      "stateMutability": "nonpayable",
      "type": "function"
    },
    {
      "inputs": [
        {
          "internalType": "uint256",
          "name": "gameId",
          "type": "uint256"
        },
        {
          "internalType": "uint8",
          "name": "id",
          "type": "uint8"
        },
        {
          "internalType": "uint256[2]",
          "name": "a",
          "type": "uint256[2]"
        },
        {
          "internalType": "uint256[2][2]",
          "name": "b",
          "type": "uint256[2][2]"
        },
        {
          "internalType": "uint256[2]",
          "name": "c",
          "type": "uint256[2]"
        },
        {
          "internalType": "uint256[10]",
          "name": "input",
          "type": "uint256[10]"
        }
      ],
      "name": "dealerDecrypt3Card",
      "outputs": [],
      "stateMutability": "nonpayable",
      "type": "function"
    },
    {
      "inputs": [
        {
          "internalType": "uint256",
          "name": "gameId",
          "type": "uint256"
        }
      ],
      "name": "getBoard",
      "outputs": [
        {
          "internalType": "address",
          "name": "",
          "type": "address"
        },
        {
          "internalType": "address",
          "name": "",
          "type": "address"
        },
        {
          "internalType": "uint256",
          "name": "",
          "type": "uint256"
        },
        {
          "internalType": "uint256",
          "name": "",
          "type": "uint256"
        },
        {
          "internalType": "uint256",
          "name": "",
          "type": "uint256"
        },
        {
          "internalType": "uint256",
          "name": "",
          "type": "uint256"
        },
        {
          "internalType": "uint8",
          "name": "",
          "type": "uint8"
        },
        {
          "internalType": "bool",
          "name": "",
          "type": "bool"
        },
        {
          "internalType": "bool",
          "name": "",
          "type": "bool"
        },
        {
          "internalType": "bool",
          "name": "",
          "type": "bool"
        },
        {
          "internalType": "bool",
          "name": "",
          "type": "bool"
        }
      ],
      "stateMutability": "view",
      "type": "function"
    },
    {
      "inputs": [
        {
          "internalType": "address",
          "name": "",
          "type": "address"
        }
      ],
      "name": "getBoardIdFromAddress",
      "outputs": [
        {
          "internalType": "uint256",
          "name": "",
          "type": "uint256"
        }
      ],
      "stateMutability": "view",
      "type": "function"
    },
    {
      "inputs": [
        {
          "internalType": "uint256",
          "name": "gameId",
          "type": "uint256"
        }
      ],
      "name": "getDealerCards",
      "outputs": [
        {
          "internalType": "uint256[]",
          "name": "",
          "type": "uint256[]"
        }
      ],
      "stateMutability": "view",
      "type": "function"
    },
    {
      "inputs": [
        {
          "internalType": "uint256",
          "name": "gameId",
          "type": "uint256"
        }
      ],
      "name": "getDealerDecrypteds",
      "outputs": [
        {
          "internalType": "uint256[52]",
          "name": "",
          "type": "uint256[52]"
        }
      ],
      "stateMutability": "view",
      "type": "function"
    },
    {
      "inputs": [
        {
          "internalType": "uint256",
          "name": "gameId",
          "type": "uint256"
        }
      ],
      "name": "getDeck",
      "outputs": [
        {
          "internalType": "uint256[52]",
          "name": "",
          "type": "uint256[52]"
        }
      ],
      "stateMutability": "view",
      "type": "function"
    },
    {
      "inputs": [
        {
          "internalType": "uint256",
          "name": "gameId",
          "type": "uint256"
        }
      ],
      "name": "getPlayerCards",
      "outputs": [
        {
          "internalType": "uint256[]",
          "name": "",
          "type": "uint256[]"
        }
      ],
      "stateMutability": "view",
      "type": "function"
    },
    {
      "inputs": [
        {
          "internalType": "uint256",
          "name": "val",
          "type": "uint256"
        }
      ],
      "name": "getPoint",
      "outputs": [
        {
          "internalType": "uint256",
          "name": "",
          "type": "uint256"
        }
      ],
      "stateMutability": "pure",
      "type": "function"
    },
    {
      "inputs": [
        {
          "internalType": "uint256",
          "name": "gameId",
          "type": "uint256"
        },
        {
          "internalType": "uint8",
          "name": "index",
          "type": "uint8"
        }
      ],
      "name": "getUserDecrypted",
      "outputs": [
        {
          "internalType": "uint256",
          "name": "",
          "type": "uint256"
        }
      ],
      "stateMutability": "view",
      "type": "function"
    },
    {
      "inputs": [
        {
          "internalType": "uint256",
          "name": "gameId",
          "type": "uint256"
        }
      ],
      "name": "getUserDecryptedIndex",
      "outputs": [
        {
          "internalType": "uint8",
          "name": "",
          "type": "uint8"
        }
      ],
      "stateMutability": "view",
      "type": "function"
    },
    {
      "inputs": [
        {
          "internalType": "uint256",
          "name": "val",
          "type": "uint256"
        }
      ],
      "name": "getUserDecryptedInfo",
      "outputs": [
        {
          "components": [
            {
              "internalType": "enum Rank",
              "name": "rank",
              "type": "uint8"
            },
            {
              "internalType": "uint256",
              "name": "value",
              "type": "uint256"
            }
          ],
          "internalType": "struct CardInfo",
          "name": "",
          "type": "tuple"
        }
      ],
      "stateMutability": "pure",
      "type": "function"
    },
    {
      "inputs": [
        {
          "internalType": "uint256",
          "name": "val",
          "type": "uint256"
        }
      ],
      "name": "getUserDecryptedValue",
      "outputs": [
        {
          "internalType": "uint256",
          "name": "",
          "type": "uint256"
        }
      ],
      "stateMutability": "pure",
      "type": "function"
    },
    {
      "inputs": [
        {
          "internalType": "uint256",
          "name": "gameId",
          "type": "uint256"
        }
      ],
      "name": "getUserDecrypteds",
      "outputs": [
        {
          "internalType": "uint256[52]",
          "name": "",
          "type": "uint256[52]"
        }
      ],
      "stateMutability": "view",
      "type": "function"
    },
    {
      "inputs": [
        {
          "internalType": "uint256",
          "name": "gameId",
          "type": "uint256"
        },
        {
          "internalType": "uint8",
          "name": "id",
          "type": "uint8"
        },
        {
          "internalType": "uint256[2]",
          "name": "a",
          "type": "uint256[2]"
        },
        {
          "internalType": "uint256[2][2]",
          "name": "b",
          "type": "uint256[2][2]"
        },
        {
          "internalType": "uint256[2]",
          "name": "c",
          "type": "uint256[2]"
        },
        {
          "internalType": "uint256[4]",
          "name": "input",
          "type": "uint256[4]"
        }
      ],
      "name": "hitForDealer",
      "outputs": [],
      "stateMutability": "nonpayable",
      "type": "function"
    },
    {
      "inputs": [
        {
          "internalType": "uint256",
          "name": "_id",
          "type": "uint256"
        },
        {
          "internalType": "uint256[2]",
          "name": "a",
          "type": "uint256[2]"
        },
        {
          "internalType": "uint256[2][2]",
          "name": "b",
          "type": "uint256[2][2]"
        },
        {
          "internalType": "uint256[2]",
          "name": "c",
          "type": "uint256[2]"
        },
        {
          "internalType": "uint256[209]",
          "name": "input",
          "type": "uint256[209]"
        }
      ],
      "name": "joinBoardAndShuffleDeck",
      "outputs": [],
      "stateMutability": "payable",
      "type": "function"
    },
    {
      "inputs": [
        {
          "internalType": "uint256",
          "name": "gameId",
          "type": "uint256"
        },
        {
          "internalType": "uint8",
          "name": "index",
          "type": "uint8"
        }
      ],
      "name": "moveUserDecryptedIndex",
      "outputs": [],
      "stateMutability": "nonpayable",
      "type": "function"
    },
    {
      "inputs": [
        {
          "internalType": "uint256",
          "name": "gameId",
          "type": "uint256"
        }
      ],
      "name": "quitGame",
      "outputs": [],
      "stateMutability": "nonpayable",
      "type": "function"
    },
    {
      "inputs": [
        {
          "internalType": "uint256",
          "name": "gameId",
          "type": "uint256"
        },
        {
          "internalType": "uint256[52]",
          "name": "startingDeck",
          "type": "uint256[52]"
        }
      ],
      "name": "setup",
      "outputs": [
        {
          "internalType": "bool",
          "name": "",
          "type": "bool"
        }
      ],
      "stateMutability": "nonpayable",
      "type": "function"
    },
    {
      "inputs": [
        {
          "internalType": "uint256[2]",
          "name": "a",
          "type": "uint256[2]"
        },
        {
          "internalType": "uint256[2][2]",
          "name": "b",
          "type": "uint256[2][2]"
        },
        {
          "internalType": "uint256[2]",
          "name": "c",
          "type": "uint256[2]"
        },
        {
          "internalType": "uint256[209]",
          "name": "input",
          "type": "uint256[209]"
        }
      ],
      "name": "shuffleDeck",
      "outputs": [],
      "stateMutability": "nonpayable",
      "type": "function"
    },
    {
      "inputs": [
        {
          "internalType": "uint256",
          "name": "gameId",
          "type": "uint256"
        },
        {
          "internalType": "uint256[2]",
          "name": "a",
          "type": "uint256[2]"
        },
        {
          "internalType": "uint256[2][2]",
          "name": "b",
          "type": "uint256[2][2]"
        },
        {
          "internalType": "uint256[2]",
          "name": "c",
          "type": "uint256[2]"
        },
        {
          "internalType": "uint256[209]",
          "name": "input",
          "type": "uint256[209]"
        }
      ],
      "name": "shuffleVerifyAndSave",
      "outputs": [],
      "stateMutability": "nonpayable",
      "type": "function"
    },
    {
      "inputs": [
        {
          "internalType": "uint256",
          "name": "gameId",
          "type": "uint256"
        },
        {
          "internalType": "uint256[2]",
          "name": "a",
          "type": "uint256[2]"
        },
        {
          "internalType": "uint256[2][2]",
          "name": "b",
          "type": "uint256[2][2]"
        },
        {
          "internalType": "uint256[2]",
          "name": "c",
          "type": "uint256[2]"
        },
        {
          "internalType": "uint256[13]",
          "name": "input",
          "type": "uint256[13]"
        }
      ],
      "name": "stand",
      "outputs": [],
      "stateMutability": "payable",
      "type": "function"
    },
    {
      "inputs": [
        {
          "internalType": "uint256[52]",
          "name": "startingDeck",
          "type": "uint256[52]"
        }
      ],
      "name": "startNewGame",
      "outputs": [],
      "stateMutability": "payable",
      "type": "function"
    },
    {
      "inputs": [
        {
          "internalType": "uint256",
          "name": "gameId",
          "type": "uint256"
        },
        {
          "internalType": "uint8",
          "name": "id",
          "type": "uint8"
        },
        {
          "internalType": "uint256[2]",
          "name": "a",
          "type": "uint256[2]"
        },
        {
          "internalType": "uint256[2][2]",
          "name": "b",
          "type": "uint256[2][2]"
        },
        {
          "internalType": "uint256[2]",
          "name": "c",
          "type": "uint256[2]"
        },
        {
          "internalType": "uint256[4]",
          "name": "input",
          "type": "uint256[4]"
        }
      ],
      "name": "userDecrypt1Card",
      "outputs": [],
      "stateMutability": "nonpayable",
      "type": "function"
    },
    {
      "inputs": [
        {
          "internalType": "uint256",
          "name": "gameId",
          "type": "uint256"
        },
        {
          "internalType": "uint8",
          "name": "id",
          "type": "uint8"
        },
        {
          "internalType": "uint256[2]",
          "name": "a",
          "type": "uint256[2]"
        },
        {
          "internalType": "uint256[2][2]",
          "name": "b",
          "type": "uint256[2][2]"
        },
        {
          "internalType": "uint256[2]",
          "name": "c",
          "type": "uint256[2]"
        },
        {
          "internalType": "uint256[13]",
          "name": "input",
          "type": "uint256[13]"
        }
      ],
      "name": "userDecrypt4Card",
      "outputs": [],
      "stateMutability": "nonpayable",
      "type": "function"
    },
    {
      "inputs": [
        {
          "internalType": "uint256",
          "name": "gameId",
          "type": "uint256"
        },
        {
          "internalType": "uint256[2]",
          "name": "a",
          "type": "uint256[2]"
        },
        {
          "internalType": "uint256[2][2]",
          "name": "b",
          "type": "uint256[2][2]"
        },
        {
          "internalType": "uint256[2]",
          "name": "c",
          "type": "uint256[2]"
        },
        {
          "internalType": "uint256[13]",
          "name": "input",
          "type": "uint256[13]"
        }
      ],
      "name": "userDoubleDown",
      "outputs": [],
      "stateMutability": "payable",
      "type": "function"
    },
    {
      "inputs": [
        {
          "internalType": "uint256",
          "name": "gameId",
          "type": "uint256"
        },
        {
          "internalType": "uint256[2]",
          "name": "a",
          "type": "uint256[2]"
        },
        {
          "internalType": "uint256[2][2]",
          "name": "b",
          "type": "uint256[2][2]"
        },
        {
          "internalType": "uint256[2]",
          "name": "c",
          "type": "uint256[2]"
        },
        {
          "internalType": "uint256[4]",
          "name": "input",
          "type": "uint256[4]"
        }
      ],
      "name": "userHit",
      "outputs": [],
      "stateMutability": "nonpayable",
      "type": "function"
    }
  ],
  "bytecode": "0x60a06040526034608052662386f26fc100006008553480156200002157600080fd5b5060405162004572380380620045728339810160408190526200004491620000ba565b600180546001600160a01b03199081166001600160a01b03968716179091556002805482169486169490941790935560038054841692851692909217909155600480549092169216919091179055600060075562000117565b80516001600160a01b0381168114620000b557600080fd5b919050565b60008060008060808587031215620000d157600080fd5b620000dc856200009d565b9350620000ec602086016200009d565b9250620000fc604086016200009d565b91506200010c606086016200009d565b905092959194509250565b60805161443f6200013360003960006102e1015261443f6000f3fe60806040526004361061020f5760003560e01c806362bc9048116101185780639ffef402116100a0578063c1e0c5081161006f578063c1e0c50814610690578063cfd8a175146106b0578063d2339f38146106c6578063eb87333b146106e6578063f2f505241461070657600080fd5b80639ffef40214610610578063a33afe3014610630578063b1836d0114610650578063b3c16c7e1461067057600080fd5b8063768699d6116100e7578063768699d614610570578063869f1c8e146105835780638fc5c796146105a357806390171908146105c3578063930edbc4146105e357600080fd5b806362bc9048146104f05780636c81e3cd14610510578063744d5b731461053057806374df68c71461055057600080fd5b806336c24dc71161019b57806345e09e541161016a57806345e09e54146103e75780634676ddf31461047057806354f8df2114610483578063581c6ca8146104a35780635c70e146146104d057600080fd5b806336c24dc7146103745780633d1e83d814610387578063411b22de146103a7578063424b13bf146103c757600080fd5b80631c2ecff1116101e25780631c2ecff1146102af5780631c74bd4d146102cf5780632a51fb3a1461031157806334aa46e01461033e578063368de72a1461035457600080fd5b8063089219ef146102145780630ccc85e7146102295780630fdf5d091461025f57806316f992111461028f575b600080fd5b610227610222366004613852565b610738565b005b34801561023557600080fd5b506102496102443660046138d1565b610b63565b6040516102569190613900565b60405180910390f35b34801561026b57600080fd5b5061027f61027a366004613939565b610be2565b6040519015158152602001610256565b34801561029b57600080fd5b506102276102aa3660046138d1565b610c09565b3480156102bb57600080fd5b506102276102ca366004613a71565b610cc3565b3480156102db57600080fd5b506103037f000000000000000000000000000000000000000000000000000000000000000081565b604051908152602001610256565b34801561031d57600080fd5b5061033161032c3660046138d1565b610f0f565b6040516102569190613afe565b34801561034a57600080fd5b5061030360075481565b34801561036057600080fd5b5061022761036f366004613b1c565b610f58565b610227610382366004613bf5565b61102a565b34801561039357600080fd5b506102276103a2366004613bf5565b611284565b3480156103b357600080fd5b506102276103c2366004613b1c565b6113ba565b3480156103d357600080fd5b506103036103e2366004613c4d565b6116b7565b3480156103f357600080fd5b506104076104023660046138d1565b6116d0565b604080516001600160a01b039c8d1681529b909a1660208c0152988a01979097526060890195909552608088019390935260a087019190915260ff1660c0860152151560e085015215156101008401521515610120830152151561014082015261016001610256565b61022761047e366004613ca5565b6119c7565b34801561048f57600080fd5b5061030361049e366004613cfd565b611bff565b3480156104af57600080fd5b506104c36104be3660046138d1565b611c35565b6040516102569190613d2d565b3480156104dc57600080fd5b506102276104eb366004613cfd565b611e95565b3480156104fc57600080fd5b5061033161050b3660046138d1565b611ed1565b34801561051c57600080fd5b5061022761052b366004613b1c565b611f21565b34801561053c57600080fd5b5061022761054b366004613da7565b6120c9565b34801561055c57600080fd5b5061022761056b366004613e11565b61224e565b61022761057e366004613ca5565b612345565b34801561058f57600080fd5b5061030361059e3660046138d1565b612597565b3480156105af57600080fd5b506102276105be366004613ca5565b6125c5565b3480156105cf57600080fd5b506102276105de366004613e6b565b612718565b3480156105ef57600080fd5b506103036105fe366004613ec3565b60066020526000908152604090205481565b34801561061c57600080fd5b506104c361062b3660046138d1565b612ace565b34801561063c57600080fd5b5061022761064b366004613ef3565b612d2d565b34801561065c57600080fd5b5061030361066b3660046138d1565b612f43565b34801561067c57600080fd5b5061033161068b3660046138d1565b612f6b565b34801561069c57600080fd5b506102276106ab366004613a71565b612fba565b3480156106bc57600080fd5b5061030360085481565b3480156106d257600080fd5b506102276106e1366004613b1c565b6132f2565b3480156106f257600080fd5b50610227610701366004613b1c565b6133b5565b34801561071257600080fd5b506107266107213660046138d1565b6134fd565b60405160ff9091168152602001610256565b6007805490600061074883613f73565b909155505033600090815260066020526040902054156107a15760405162461bcd60e51b815260206004820152600f60248201526e1119585b195c881a5b88189bd85c99608a1b60448201526064015b60405180910390fd5b6008546107af906002613f8e565b3410156107f25760405162461bcd60e51b8152602060048201526011602482015270125b9cdd59999a58da595b9d08199d5b99607a1b6044820152606401610798565b6108b9604051806102c0016040528060008152602001600060ff16815260200160006001600160a01b0316815260200160006001600160a01b0316815260200160008152602001600081526020016000815260200160608152602001606081526020016000815260200160008152602001600081526020016060815260200160008152602001600081526020016060815260200160008152602001600081526020016000151581526020016000151581526020016000151581526020016000151581525090565b60075481523360408201526008546108d2906002613f8e565b6101c082015260016020820152600754604051630fdf5d0960e01b81523091630fdf5d099161090691908690600401613fad565b602060405180830381600087803b15801561092057600080fd5b505af1158015610934573d6000803e3d6000fd5b505050506040513d601f19601f820116820180604052508101906109589190613fc2565b50805160009081526005602081815260409283902084518155818501516001820180549587015160ff9092166001600160a81b0319909616959095176101006001600160a01b03928316021790945560608501516002820180546001600160a01b03191691909516179093556080840151600384015560a0840151600484015560c08401519183019190915560e083015180518493926109ff926006850192910190613766565b506101008201518051610a1c916007840191602090910190613766565b5061012082015160088201556101408201516009820155610160820151600a8201556101808201518051610a5a91600b840191602090910190613766565b506101a0820151600c8201556101c0820151600d8201556101e08201518051610a8d91600e840191602090910190613766565b50610200820151600f8201556102208201516010820155610240820151601190910180546102608401516102808501516102a09095015161ffff1990921693151561ff00191693909317610100931515939093029290921763ffff00001916620100009315159390930263ff00000019169290921763010000009115159190910217905560075433600081815260066020908152604091829020939093558351905190815290917f0988a2b4a2d4dab5e137b0af44eed4118da87a6117a6753902e827e5291c3b92910160405180910390a25050565b60408051808201909152600080825260208201526000610b84600d84613ffa565b9050610b91600d84613ffa565b610b995750600d5b6040518060400160405280600d85610bb1919061400e565b6003811115610bc257610bc26138ea565b6003811115610bd357610bd36138ea565b81526020019190915292915050565b6000828152602081905260408120610bfc818460346137b1565b5060019150505b92915050565b336000908152600660205260409020548114610c375760405162461bcd60e51b815260040161079890614022565b600081815260056020526040902060028101546001600160a01b0316331415610c9157610c7e818260010160019054906101000a90046001600160a01b03166008546135d3565b60018101805460ff191660101790555050565b6002810154600854610cb09183916001600160a01b03909116906135d3565b60018101805460ff1916600e1790555050565b336000908152600660205260409020548514610cf15760405162461bcd60e51b815260040161079890614022565b60008581526005602081905260409091206001810154909160ff9091161480610d215750600181015460ff166007145b610d6d5760405162461bcd60e51b815260206004820152601f60248201527f5468697320616374696f6e206f6e6c7920666f7220706c6179657220686974006044820152606401610798565b60018101805460ff19166006179055604051633cbd414960e21b815260048101879052600090309063f2f505249060240160206040518083038186803b158015610db657600080fd5b505afa158015610dca573d6000803e3d6000fd5b505050506040513d601f19601f82011682018060405250810190610dee9190614047565b90503063d2339f3888610e02846001614064565b898989896040518763ffffffff1660e01b8152600401610e27969594939291906140fd565b600060405180830381600087803b158015610e4157600080fd5b505af1158015610e55573d6000803e3d6000fd5b5050604051632e3870a360e11b8152600481018a905260016024820152309250635c70e1469150604401600060405180830381600087803b158015610e9957600080fd5b505af1158015610ead573d6000803e3d6000fd5b505050506001820154600283015483546040519081526101009092046001600160a01b03908116929116907f345988cc5426bdb70d1f31c3fd6ffdec69c9a539888dd2085c9640f029e1230c906020015b60405180910390a350505050505050565b610f176137df565b60008281526020819052604080822081516106808101928390529160349082845b815481526020019060010190808311610f38575093979650505050505050565b600086815260208190526040902060348082019060ff8816908110610f7f57610f7f61414f565b01548260026020020152600254604051635fe8c13b60e01b81526001600160a01b0390911690635fe8c13b90610fbf908890889088908890600401614165565b60006040518083038186803b158015610fd757600080fd5b505afa158015610feb573d6000803e3d6000fd5b50505050816000600481106110025761100261414f565b6020020151816068018760ff166034811061101f5761101f61414f565b015550505050505050565b33600090815260066020526040902054156110875760405162461bcd60e51b815260206004820152601e60248201527f506c6179657220616c726561647920696e20616e6f746865722067616d6500006044820152606401610798565b3360009081526006602090815260408083208890558783526005909152902060028101546001600160a01b0316156111015760405162461bcd60e51b815260206004820152601860248201527f47616d652068617320616c7265616479207374617274656400000000000000006044820152606401610798565b6008543410156111475760405162461bcd60e51b8152602060048201526011602482015270125b9cdd59999a58da595b9d08199d5b99607a1b6044820152606401610798565b600181015460ff166002146111a85760405162461bcd60e51b815260206004820152602160248201527f5468697320616374696f6e206f6e6c7920666f7220757365722073687566666c6044820152606560f81b6064820152608401610798565b60085460058201556002810180546001600160a01b0319163317905560018101805460ff191660031790556040516307a3d07b60e31b81523090633d1e83d8906111fe90899089908990899089906004016141c8565b600060405180830381600087803b15801561121857600080fd5b505af115801561122c573d6000803e3d6000fd5b50505050600181015481546040519081526101009091046001600160a01b03169033907fbfd436d24d21060f278a8b528282bc3a5bca811b5e108e411c10ca75d65f64679060200160405180910390a3505050505050565b60005b60348110156112e457600086815260208190526040902081603481106112af576112af61414f565b0154826112bd83609c61420f565b60d181106112cd576112cd61414f565b6020020152806112dc81613f73565b915050611287565b5060015460405163da0db35360e01b81526001600160a01b039091169063da0db3539061131b908790879087908790600401614227565b60006040518083038186803b15801561133357600080fd5b505afa158015611347573d6000803e3d6000fd5b5050505060005b60348110156113b2578161136382603461420f565b60d181106113735761137361414f565b6020020151600080888152602001908152602001600020600001826034811061139e5761139e61414f565b0155806113aa81613f73565b91505061134e565b505050505050565b3360009081526006602052604090205486146113e85760405162461bcd60e51b815260040161079890614022565b6000868152600560205260409020600181015460ff16601414806114135750600181015460ff16600a145b61145f5760405162461bcd60e51b815260206004820152601f60248201527f5468697320616374696f6e206f6e6c7920666f72206465616c657220686974006044820152606401610798565b604051631b46f39560e11b8152309063368de72a9061148c908a908a908a908a908a908a906004016140fd565b600060405180830381600087803b1580156114a657600080fd5b505af11580156114ba573d6000803e3d6000fd5b505050506034826000600481106114d3576114d361414f565b6020020151116116ae576001818101805460ff1916600a1790558251600e8301805492830181556000908152602081209092015561151783825b6020020151612597565b905080600114801561152d5750600b82600f0154105b1561156e57600b82600f016000828254611547919061420f565b925050819055506001826010016000828254611563919061420f565b909155506115a39050565b8082600f016000828254611582919061420f565b925050819055508082601001600082825461159d919061420f565b90915550505b60108260100154106116ac5760006115c3836009015484600801546116b7565b905060006115d9846010015485600f01546116b7565b9050601581101561167b57808214156116075760018401805460ff1916600d179055611607846000806135d3565b8082111561163d5760018401805460ff1916600e179055600284015460085461163d9186916001600160a01b03909116906135d3565b8082101561167657600184018054601060ff1990911617908190556008546116769186916101009091046001600160a01b0316906135d3565b6116a9565b60018401805460ff1916601117905560028401546008546116a99186916001600160a01b03909116906135d3565b50505b505b50505050505050565b600060158211156116c9575081610c03565b5080610c03565b600081815260056020818152604080842081516102c08101835281548152600182015460ff8116828601526001600160a01b03610100909104811682850152600283015416606082015260038201546080820152600482015460a08201529381015460c0850152600681018054835181860281018601909452808452869586958695869586958695869586958695869586959394909360e086019390919083018282801561179d57602002820191906000526020600020905b815481526020019060010190808311611789575b50505050508152602001600782018054806020026020016040519081016040528092919081815260200182805480156117f557602002820191906000526020600020905b8154815260200190600101908083116117e1575b505050505081526020016008820154815260200160098201548152602001600a8201548152602001600b820180548060200260200160405190810160405280929190818152602001828054801561186b57602002820191906000526020600020905b815481526020019060010190808311611857575b50505050508152602001600c8201548152602001600d8201548152602001600e82018054806020026020016040519081016040528092919081815260200182805480156118d757602002820191906000526020600020905b8154815260200190600101908083116118c3575b50505050508152602001600f8201548152602001601082015481526020016011820160009054906101000a900460ff161515151581526020016011820160019054906101000a900460ff161515151581526020016011820160029054906101000a900460ff161515151581526020016011820160039054906101000a900460ff16151515158152505090508060400151816060015182610120015183610140015184610200015185610220015186602001518761028001518861024001518961026001518a6102a001519b509b509b509b509b509b509b509b509b509b509b505091939597999b90929496989a50565b3360009081526006602052604090205485146119f55760405162461bcd60e51b815260040161079890614022565b60008581526005602081905260409091206001810154909160ff90911614611a6a5760405162461bcd60e51b815260206004820152602260248201527f5468697320616374696f6e206f6e6c7920666f7220706c6179657220646f75626044820152616c6560f01b6064820152608401610798565b60018101805460ff19166008179055604051633cbd414960e21b815260048101879052600090309063f2f505249060240160206040518083038186803b158015611ab357600080fd5b505afa158015611ac7573d6000803e3d6000fd5b505050506040513d601f19601f82011682018060405250810190611aeb9190614047565b90503063a33afe3088611aff846001614064565b898989896040518763ffffffff1660e01b8152600401611b2496959493929190614281565b600060405180830381600087803b158015611b3e57600080fd5b505af1158015611b52573d6000803e3d6000fd5b5050604051632e3870a360e11b8152600481018a905260036024820152309250635c70e1469150604401600060405180830381600087803b158015611b9657600080fd5b505af1158015611baa573d6000803e3d6000fd5b505050506001820154600283015483546040519081526101009092046001600160a01b03908116929116907fe3cddd14e9752026d180c18dd98dea2e125f6759ab8f6d67fa5a86868ee9418690602001610efe565b6000806000808581526020019081526020016000206034018360ff1660348110611c2b57611c2b61414f565b0154949350505050565b600081815260056020818152604080842081516102c08101835281548152600182015460ff8116828601526001600160a01b0361010090910481168285015260028301541660608281019190915260038301546080830152600483015460a08301529482015460c08201526006820180548451818702810187019095528085529596959194929360e0860193909290830182828015611cf357602002820191906000526020600020905b815481526020019060010190808311611cdf575b5050505050815260200160078201805480602002602001604051908101604052809291908181526020018280548015611d4b57602002820191906000526020600020905b815481526020019060010190808311611d37575b505050505081526020016008820154815260200160098201548152602001600a8201548152602001600b8201805480602002602001604051908101604052809291908181526020018280548015611dc157602002820191906000526020600020905b815481526020019060010190808311611dad575b50505050508152602001600c8201548152602001600d8201548152602001600e8201805480602002602001604051908101604052809291908181526020018280548015611e2d57602002820191906000526020600020905b815481526020019060010190808311611e19575b5050509183525050600f82015460208201526010820154604082015260119091015460ff8082161515606084015261010082048116151560808401526201000082048116151560a0840152630100000090910416151560c0909101526101e001519392505050565b6000828152602081905260409020609c810154611eb690839060ff16614064565b609c91909101805460ff191660ff9092169190911790555050565b611ed96137df565b60008281526020819052604080822081516106808101909252603490810190828282602002820191815481526020019060010190808311610f38575093979650505050505050565b336000908152600660205260409020548614611f4f5760405162461bcd60e51b815260040161079890614022565b6000868152600560205260409020600181015460ff16600614611f845760405162461bcd60e51b8152600401610798906142c8565b60018101805460ff19166007179055604051631b46f39560e11b8152309063368de72a90611fc0908a908a908a908a908a908a906004016140fd565b600060405180830381600087803b158015611fda57600080fd5b505af1158015611fee573d6000803e3d6000fd5b505050506034826000600481106120075761200761414f565b6020020151116116ae57600061201d838261150d565b835160068401805460018101825560009182526020909120015560118301549091506301000000900460ff1615612053576120c0565b8060011480156120675750600b8260080154105b1561208c57600b826008016000828254612081919061420f565b909155506120a69050565b808260080160008282546120a0919061420f565b90915550505b808260090160008282546120ba919061420f565b90915550505b6116ac82613725565b6000868152602081905260408120905b600381101561213857603482016120f38260ff8a1661420f565b603481106121035761210361414f565b01548361211183600661420f565b600a81106121215761212161414f565b60200201528061213081613f73565b9150506120d9565b506003546040516379ddb87b60e11b81526001600160a01b039091169063f3bb70f69061216f90889088908890889060040161433d565b60006040518083038186803b15801561218757600080fd5b505afa15801561219b573d6000803e3d6000fd5b50505050816000600a81106121b2576121b261414f565b60200201516000808981526020019081526020016000206068018760ff16603481106121e0576121e061414f565b01556020808301516000898152918290526040909120606801612204886001614064565b60ff16603481106122175761221761414f565b0155604080830151600089815260208190529190912060680161223b886002614064565b60ff166034811061101f5761101f61414f565b33600090815260066020526040908190205490516307a3d07b60e31b81523090633d1e83d89061228a90849089908990899089906004016141c8565b600060405180830381600087803b1580156122a457600080fd5b505af11580156122b8573d6000803e3d6000fd5b505050600082815260056020526040902060018082015491925060ff909116146123305760405162461bcd60e51b815260206004820152602360248201527f5468697320616374696f6e206f6e6c7920666f72206465616c65722073687566604482015262666c6560e81b6064820152608401610798565b600101805460ff191660021790555050505050565b3360009081526006602052604090205485146123735760405162461bcd60e51b815260040161079890614022565b6000858152600560205260409020600181015460ff166007148061239e5750600181015460ff166005145b6123f45760405162461bcd60e51b815260206004820152602160248201527f5468697320616374696f6e206f6e6c7920666f7220706c61796572207374616e6044820152601960fa1b6064820152608401610798565b60018101805460ff19166009179055604051633cbd414960e21b815260048101879052600090309063f2f505249060240160206040518083038186803b15801561243d57600080fd5b505afa158015612451573d6000803e3d6000fd5b505050506040513d601f19601f820116820180604052508101906124759190614047565b90503063a33afe3088612489846001614064565b898989896040518763ffffffff1660e01b81526004016124ae96959493929190614281565b600060405180830381600087803b1580156124c857600080fd5b505af11580156124dc573d6000803e3d6000fd5b5050604051632e3870a360e11b8152600481018a905260036024820152309250635c70e1469150604401600060405180830381600087803b15801561252057600080fd5b505af1158015612534573d6000803e3d6000fd5b5050505060118201805462ffffff191690556001820154600283015483546040519081526101009092046001600160a01b03908116929116907f81895d681c90dab1f5bccdb5d693091025ee444ae6291c2fb36bf04248ec949890602001610efe565b6000806125a383610b63565b9050600a816020015111156125bb5750600a92915050565b6020015192915050565b3360009081526006602052604090205485146125f35760405162461bcd60e51b815260040161079890614022565b6000858152600560205260409020600181015460ff166003146126495760405162461bcd60e51b815260206004820152600e60248201526d27b710283630bcb2b9103a3ab93760911b6044820152606401610798565b604051630a33afe360e41b8152309063a33afe30906126779089906000908a908a908a908a90600401614281565b600060405180830381600087803b15801561269157600080fd5b505af11580156126a5573d6000803e3d6000fd5b5050604051632e3870a360e11b81526004810189905260036024820152309250635c70e1469150604401600060405180830381600087803b1580156126e957600080fd5b505af11580156126fd573d6000803e3d6000fd5b5050506001909101805460ff19166004179055505050505050565b3360009081526006602052604090205485146127465760405162461bcd60e51b815260040161079890614022565b6000858152600560205260409020600181015460ff1660041461279c5760405162461bcd60e51b815260206004820152600e60248201526d27b710283630bcb2b9103a3ab93760911b6044820152606401610798565b60018101805460ff1916600517905560405163744d5b7360e01b8152309063744d5b73906127d99089906000908a908a908a908a90600401614374565b600060405180830381600087803b1580156127f357600080fd5b505af1158015612807573d6000803e3d6000fd5b50508351600684018054600180820183556000838152602080822093840195909555938801518354918201909355015591506128459050838261150d565b9050600061285484600161150d565b9050600061286385600261150d565b60118501805460ff191660011790559050828214156128905760118401805462ff00001916620100001790555b82600114156128d557600b8460080160008282546128ae919061420f565b9250508190555060018460090160008282546128ca919061420f565b9091555061290a9050565b828460080160008282546128e9919061420f565b9250508190555082846009016000828254612904919061420f565b90915550505b81600114801561291e57508360080154600b145b1561295f576001846008016000828254612938919061420f565b925050819055506001846009016000828254612954919061420f565b909155506129c39050565b81600114801561297457508360080154600b14155b1561298e57600b846008016000828254612938919061420f565b818460080160008282546129a2919061420f565b92505081905550818460090160008282546129bd919061420f565b90915550505b6040850151600e8501805460018082018355600092835260209092200191909155811415612a3b5760118401805461ff001916610100179055600f84018054600b9190600090612a1490849061420f565b925050819055506001846010016000828254612a30919061420f565b90915550612a709050565b8084600f016000828254612a4f919061420f565b9250508190555080846010016000828254612a6a919061420f565b90915550505b836008015460151415612ac35760018401805460ff1916600b1790556002840154600854612ac39186916001600160a01b0390911690606490612ab4906096613f8e565b612abe919061400e565b6135d3565b505050505050505050565b600081815260056020818152604080842081516102c08101835281548152600182015460ff8116828601526001600160a01b0361010090910481168285015260028301541660608281019190915260038301546080830152600483015460a08301529482015460c08201526006820180548451818702810187019095528085529596959194929360e0860193909290830182828015612b8c57602002820191906000526020600020905b815481526020019060010190808311612b78575b5050505050815260200160078201805480602002602001604051908101604052809291908181526020018280548015612be457602002820191906000526020600020905b815481526020019060010190808311612bd0575b505050505081526020016008820154815260200160098201548152602001600a8201548152602001600b8201805480602002602001604051908101604052809291908181526020018280548015612c5a57602002820191906000526020600020905b815481526020019060010190808311612c46575b50505050508152602001600c8201548152602001600d8201548152602001600e8201805480602002602001604051908101604052809291908181526020018280548015612cc657602002820191906000526020600020905b815481526020019060010190808311612cb2575b5050509183525050600f82015460208201526010820154604082015260119091015460ff8082161515606084015261010082048116151560808401526201000082048116151560a0840152630100000090910416151560c09091015260e001519392505050565b6000868152602081905260408120905b6004811015612e0b5760348201612d578260ff8a1661420f565b60348110612d6757612d6761414f565b015415612db75760348201612d7f8260ff8a1661420f565b60348110612d8f57612d8f61414f565b015483612d9d83600861420f565b600d8110612dad57612dad61414f565b6020020152612df9565b81612dc58260ff8a1661420f565b60348110612dd557612dd561414f565b015483612de383600861420f565b600d8110612df357612df361414f565b60200201525b80612e0381613f73565b915050612d3d565b50600480546040516378a1d3af60e11b81526001600160a01b039091169163f143a75e91612e41918991899189918991016143bb565b60006040518083038186803b158015612e5957600080fd5b505afa158015612e6d573d6000803e3d6000fd5b50505050816000600d8110612e8457612e8461414f565b60200201516000808981526020019081526020016000206034018760ff1660348110612eb257612eb261414f565b01556020808301516000898152918290526040909120603401612ed6886001614064565b60ff1660348110612ee957612ee961414f565b01556040808301516000898152602081905291909120603401612f0d886002614064565b60ff1660348110612f2057612f2061414f565b01556060820151600088815260208190526040902060340161223b886003614064565b600080612f51600d84613ffa565b9050612f5e600d84613ffa565b610c035750600d92915050565b612f736137df565b600082815260208190526040808220815161068081019092526068016034828282602002820191815481526020019060010190808311610f38575093979650505050505050565b336000908152600660205260409020548514612fe85760405162461bcd60e51b815260040161079890614022565b6000858152600560205260409020600181015461010090046001600160a01b031633146130455760405162461bcd60e51b815260206004820152600b60248201526a27b7363c903232b0b632b960a91b6044820152606401610798565b600181015460ff16600814806130625750600181015460ff166009145b6130c55760405162461bcd60e51b815260206004820152602e60248201527f5468697320616374696f6e206f6e6c7920666f72206465616c6572207265766560448201526d185b081a1a5919195b8818d85c9960921b6064820152608401610798565b604051631b46f39560e11b8152309063368de72a906130f39089906003908a908a908a908a906004016140fd565b600060405180830381600087803b15801561310d57600080fd5b505af1158015613121573d6000803e3d6000fd5b5050505060018101805460ff1916601417905581516034106131f1576000613149838261150d565b905080600114801561315f5750600b82600f0154105b156131a057600b82600f016000828254613179919061420f565b925050819055506001826010016000828254613195919061420f565b909155506131d59050565b8082600f0160008282546131b4919061420f565b92505081905550808260100160008282546131cf919061420f565b90915550505b508151600e820180546001810182556000918252602090912001555b60108160100154106113b2576000613211826009015483600801546116b7565b90506000613227836010015484600f01546116b7565b9050806015141561326357600183018054600f60ff1990911617908190556008546132639185916101009091046001600160a01b0316906135d3565b8082141561328b5760018301805460ff1916600d179055613286836000806135d3565b6116ac565b808211156132c15760018301805460ff1916600e17905560028301546008546132869185916001600160a01b03909116906135d3565b600183018054601060ff1990911617908190556008546116ac9185916101009091046001600160a01b0316906135d3565b60008681526020819052604090208060ff8716603481106133155761331561414f565b01548260026020020152600254604051635fe8c13b60e01b81526001600160a01b0390911690635fe8c13b90613355908890889088908890600401614165565b60006040518083038186803b15801561336d57600080fd5b505afa158015613381573d6000803e3d6000fd5b50505050816000600481106133985761339861414f565b6020020151816034018760ff166034811061101f5761101f61414f565b3360009081526006602052604090205486146133e35760405162461bcd60e51b815260040161079890614022565b6000868152600560205260409020600181015460ff166008146134185760405162461bcd60e51b8152600401610798906142c8565b60018101805460ff19166009179055604051631b46f39560e11b8152309063368de72a90613454908a908a908a908a908a908a906004016140fd565b600060405180830381600087803b15801561346e57600080fd5b505af1158015613482573d6000803e3d6000fd5b5050505060348260006004811061349b5761349b61414f565b6020020151116116ae5760006134b1838261150d565b835160068401805460018082018355600092835260209092200191909155909150811480156120675750600b8260080154101561208c57600b826008016000828254612081919061420f565b6000818152602081905260408082208151610700810190925282919081608081018260348282826020028201915b81548152602001906001019080831161352b575050509183525050604080516106808101918290526020909201919060348481019182845b8154815260200190600101908083116135635750505091835250506040805161068081019182905260209092019190606884019060349082845b81548152602001906001019080831161359d575050509183525050609c919091015460ff16602090910152606001519392505050565b6005830154600d84015460028501546001600160a01b0385811691161415613612576135ff838361420f565b915061360b83826143f2565b905061362b565b61361c83836143f2565b9150613628838261420f565b90505b600185015461010090046001600160a01b0390811660009081526006602090815260408083208390556002890154841683528083209290925587548251908152908101859052908101839052908516907f676fe8e15e727b37b580692a2a670a69c1ce28807f8884523631122d8599eaf59060600160405180910390a260028501546040516001600160a01b039091169083156108fc029084906000818181858888f193505050501580156136e4573d6000803e3d6000fd5b5060018501546040516101009091046001600160a01b0316906108fc8315029083906000818181858888f193505050501580156113b2573d6000803e3d6000fd5b60158160090154111561376357600181018054600c60ff1990911617908190556008546137639183916101009091046001600160a01b0316906135d3565b50565b8280548282559060005260206000209081019282156137a1579160200282015b828111156137a1578251825591602001919060010190613786565b506137ad9291506137fe565b5090565b82603481019282156137a1579160200282015b828111156137a15782358255916020019190600101906137c4565b6040518061068001604052806034906020820280368337509192915050565b5b808211156137ad57600081556001016137ff565b634e487b7160e01b600052604160045260246000fd5b6040805190810167ffffffffffffffff8111828210171561384c5761384c613813565b60405290565b600061068080838503121561386657600080fd5b83601f84011261387557600080fd5b60405181810181811067ffffffffffffffff8211171561389757613897613813565b6040529083019080858311156138ac57600080fd5b845b838110156138c65780358252602091820191016138ae565b509095945050505050565b6000602082840312156138e357600080fd5b5035919050565b634e487b7160e01b600052602160045260246000fd5b815160408201906004811061392557634e487b7160e01b600052602160045260246000fd5b808352506020830151602083015292915050565b6000806106a080848603121561394e57600080fd5b8335925084818501111561396157600080fd5b506020830190509250929050565b600082601f83011261398057600080fd5b613988613829565b80604084018581111561399a57600080fd5b845b818110156138c657803584526020938401930161399c565b600082601f8301126139c557600080fd5b6139cd613829565b8060808401858111156139df57600080fd5b845b818110156138c6576139f3878261396f565b84526020909301926040016139e1565b600082601f830112613a1457600080fd5b6040516080810181811067ffffffffffffffff82111715613a3757613a37613813565b604052806080840185811115613a4c57600080fd5b845b81811015613a66578035835260209283019201613a4e565b509195945050505050565b60008060008060006101a08688031215613a8a57600080fd5b85359450613a9b876020880161396f565b9350613aaa87606088016139b4565b9250613ab98760e0880161396f565b9150613ac9876101208801613a03565b90509295509295909350565b8060005b6034811015613af8578151845260209384019390910190600101613ad9565b50505050565b6106808101610c038284613ad5565b60ff8116811461376357600080fd5b6000806000806000806101c08789031215613b3657600080fd5b863595506020870135613b4881613b0d565b9450613b57886040890161396f565b9350613b6688608089016139b4565b9250613b7688610100890161396f565b9150613b86886101408901613a03565b90509295509295509295565b600082601f830112613ba357600080fd5b604051611a2080820182811067ffffffffffffffff82111715613bc857613bc8613813565b60405283018185821115613bdb57600080fd5b845b82811015613a66578035825260209182019101613bdd565b6000806000806000611b408688031215613c0e57600080fd5b85359450613c1f876020880161396f565b9350613c2e87606088016139b4565b9250613c3d8760e0880161396f565b9150613ac9876101208801613b92565b60008060408385031215613c6057600080fd5b50508035926020909101359150565b600082601f830112613c8057600080fd5b6040516101a080820182811067ffffffffffffffff82111715613bc857613bc8613813565b60008060008060006102c08688031215613cbe57600080fd5b85359450613ccf876020880161396f565b9350613cde87606088016139b4565b9250613ced8760e0880161396f565b9150613ac9876101208801613c6f565b60008060408385031215613d1057600080fd5b823591506020830135613d2281613b0d565b809150509250929050565b6020808252825182820181905260009190848201906040850190845b81811015613d6557835183529284019291840191600101613d49565b50909695505050505050565b600082601f830112613d8257600080fd5b60405161014080820182811067ffffffffffffffff82111715613bc857613bc8613813565b6000806000806000806102808789031215613dc157600080fd5b863595506020870135613dd381613b0d565b9450613de2886040890161396f565b9350613df188608089016139b4565b9250613e0188610100890161396f565b9150613b86886101408901613d71565b600080600080611b208587031215613e2857600080fd5b613e32868661396f565b9350613e4186604087016139b4565b9250613e508660c0870161396f565b9150613e60866101008701613b92565b905092959194509250565b60008060008060006102608688031215613e8457600080fd5b85359450613e95876020880161396f565b9350613ea487606088016139b4565b9250613eb38760e0880161396f565b9150613ac9876101208801613d71565b600060208284031215613ed557600080fd5b81356001600160a01b0381168114613eec57600080fd5b9392505050565b6000806000806000806102e08789031215613f0d57600080fd5b863595506020870135613f1f81613b0d565b9450613f2e886040890161396f565b9350613f3d88608089016139b4565b9250613f4d88610100890161396f565b9150613b86886101408901613c6f565b634e487b7160e01b600052601160045260246000fd5b6000600019821415613f8757613f87613f5d565b5060010190565b6000816000190483118215151615613fa857613fa8613f5d565b500290565b8281526106a08101613eec6020830184613ad5565b600060208284031215613fd457600080fd5b81518015158114613eec57600080fd5b634e487b7160e01b600052601260045260246000fd5b60008261400957614009613fe4565b500690565b60008261401d5761401d613fe4565b500490565b6020808252600b908201526a27b7363c90383630bcb2b960a91b604082015260600190565b60006020828403121561405957600080fd5b8151613eec81613b0d565b600060ff821660ff84168060ff0382111561408157614081613f5d565b019392505050565b8060005b6002811015613af857815184526020938401939091019060010161408d565b8060005b6002811015613af8576140c4848351614089565b60409390930192602091909101906001016140b0565b8060005b6004811015613af85781518452602093840193909101906001016140de565b86815260ff861660208201526101c0810161411b6040830187614089565b61412860808301866140ac565b614136610100830185614089565b6141446101408301846140da565b979650505050505050565b634e487b7160e01b600052603260045260246000fd5b61018081016141748287614089565b61418160408301866140ac565b61418e60c0830185614089565b61419c6101008301846140da565b95945050505050565b8060005b60d1811015613af85781518452602093840193909101906001016141a9565b858152611b4081016141dd6020830187614089565b6141ea60608301866140ac565b6141f760e0830185614089565b6142056101208301846141a5565b9695505050505050565b6000821982111561422257614222613f5d565b500190565b611b2081016142368287614089565b61424360408301866140ac565b61425060c0830185614089565b61419c6101008301846141a5565b8060005b600d811015613af8578151845260209384019390910190600101614262565b86815260ff861660208201526102e0810161429f6040830187614089565b6142ac60808301866140ac565b6142ba610100830185614089565b61414461014083018461425e565b60208082526032908201527f5468697320616374696f6e206f6e6c7920666f72206465616c6572207265766560408201527130b61031b0b932103337b910383630bcb2b960711b606082015260800190565b8060005b600a811015613af857815184526020938401939091019060010161431e565b610240810161434c8287614089565b61435960408301866140ac565b61436660c0830185614089565b61419c61010083018461431a565b86815260ff8616602082015261028081016143926040830187614089565b61439f60808301866140ac565b6143ad610100830185614089565b61414461014083018461431a565b6102a081016143ca8287614089565b6143d760408301866140ac565b6143e460c0830185614089565b61419c61010083018461425e565b60008282101561440457614404613f5d565b50039056fea2646970667358221220fba0de1a7fee6c54235eb2989270c1adad85de2f491f7c239485332010ee48d364736f6c63430008090033",
  "linkReferences": {},
  "deployedLinkReferences": {}
}